:020000040000FA
:030000000200D328
:03003300020B03BA
:03006B00020A394D
:03007B00020AA2D4
:100083000207CD00000080FB1200E2B9000302006A
:10009300CDE4900101784379028002F0A3D8FCD922
:1000A300FA900243AA82AB839000E578D27901806B
:1000B30015E493A3AC82AD838A828B83F0A3AA82D7
:1000C300AB838C828D83D8E9D9E7120F3C1200866B
:1000D30075D0007581BF75100175110102008B7910
:1000E3000122537769746368004C6967687400324E
:1000F300343230003234333000323433310032356D
:10010300323000323533300032353331003235315D
:10011300300032353131003131313000313131315C
:10012300002D2D2D2D002020204343787878782032
:1001330028202900202020002020205449204C5032
:1001430057005265616479004A6F79737469636B10
:1001530020507573680053656E6420436F6D6D6145
:100163006E64004C69676874205377697463680030
:10017300446576696365204D6F64653A2000FF002E
:100183000000000000000000000003070E0E1C1911
:100193001B1B1B1B191C0E0E0703181E0703181C21
:1001A300060000061C1803071E184302014A020238
:1001B3000B0302CAC0E0E6F0A308DAFAD0E0FA22A1
:1001C300CAC0E0E0A3C582CCC582C583CDC583F098
:1001D300A3C582CCC582C583CDC583DAE6D0E0CA88
:1001E30022700422600D18C6C333C608C633C6D5B1
:1001F300E0F41822251010AF08F510400215118005
:1002030008F51040021511D2AF22C0D0251010AF4F
:1002130008F510500205118008F51050020511D29F
:10022300AFD0D0222510F58210AF08F5104002158B
:10023300118008F51040021511D2AF8511832225D4
:1002430010F582E43511F58322E4732510C582C0CD
:10025300E0E51134FFC583C0E0E510C3958224F9BE
:1002630010AF0885831185821080088583118582EC
:1002730010D2AFCEF0A3E520F0A37808E608F0A3F0
:10028300DEFAEFF0A3E58124FBF8E608F0A3E60825
:10029300F0A30808E608F0A3E608F0A3158115818A
:1002A300D0E0FED0E0F815811581E8C0E0EEC0E0B3
:1002B30022851183851082E0A3FEE0A3F520780850
:1002C300E0A3F608DFFAE0A3FFE0A3C0E0E0A3C0E9
:1002D300E0E0A3C0E0E0A3C0E010AF088582108592
:1002E30083118008858210858311D2AFD083D08299
:1002F30022C0D02510C582C0E0E51134FFC583C0FC
:10030300E0E510C3958224F310AF0885831185823D
:10031300108008858311858210D2AFC8F0A3E9F05D
:10032300A3EAF0A3EBF0A37908E709F0A3D8FAEC6A
:10033300F0A3EDF0A3EEF0A3EFF0A3D0E0F0A3D091
:10034300E0F0A3D0E0F0A3E520F0A3E5F0F0A322D2
:10035300851183851082E0C0E0A3E0F9A3E0FAA34E
:10036300E0FBA37808E0F608A3DFFAE0FCA3E0FDD6
:10037300A3E0FEA3E0FFA3E0C0E0A3E0C0E0A3E0AE
:10038300F5D0A3E0F520A3E0A3F5F010AF08858333
:10039300118582108008858311858210D2AFD082A7
:1003A300D083D0E0F8D0E03274028000C0E0F404DF
:1003B300120227D0E01201B622C082C0831207AA1C
:1003C300D2AF79017A7D7B0112079290017DE0C261
:1003D300E7F06405703D79057A7E7B01120792A3ED
:1003E300E0A2E55004D2F08002C2F0A2F0E4339020
:1003F30002E7F0900182E0A2E7400302049D90012E
:1004030080E0F8900101E068600302049DA3740199
:1004130002049CE024F59002E4F090017DE0F97A77
:100423007E7B01120792A3E0A2E55004D2F0800282
:10043300C2F0A2F0E4339002E7F090018512053395
:100443009002E0E8F0A3E9F09002E57487F0A3746A
:1004530001F09002E4E0F83395E0F9748728F8742A
:100463000139F988828983E09002E8F088828983E0
:10047300A3E0A2E7501C9002DFE0F8900180E0685F
:10048300601090017EE054DF644170069002E974CD
:1004930001F0900180E09002DFF0C2AF1207BA02D0
:1004A30007C874F812024E8A828B83120748E964E4
:1004B3000170047901806BC2AFA882A983900108FF
:1004C300E8F0A3E9F09002E5E4F0A3F0900103045F
:1004D300F0A3E4F0A3F0A3F0A3F075F00512052850
:1004E300A3A3A3A3E0A424D490618F12052712052C
:1004F30033E8906174F0E9A3F0900108120A9512B1
:100503000531E8906172F0E9A3F0E5A8F8C2AF9075
:1005130001FD74BCF0A37403F0E8A2E792AFD2AF7D
:1005230079008030F0900109E0F583888222A3A34B
:10053300E0F8A3E0F92274F812024EE9FF8A08EB0F
:10054300FE74FF2FC454F025084480F91207FFEE10
:10055300F91208127F010202B474F612024EEAFE87
:10056300EBFF8C088D09890A900103E0700675E1A1
:10057300EC75E1E3E9C394674003750A67906193FF
:10058300E0542270F81207AA740B250A90010AF0AE
:1005930012064E90010B6004746180027441F0A353
:1005A3007488F0900101E090010D120527120531C6
:1005B30090010EE8F0A3E9F0A3EEF0A3EFF09001B1
:1005C30008120A95120533900112E8F0A3E9F07AB4
:1005D3000080218A82A882E50828F582E509340093
:1005E300F583E0C0E0741428F58274013400F583C8
:1005F300D0E0F00AEAC3950A40D9740A250AF97AC9
:100603000A7B0112076B1207BA75E1E9E591A2E1D2
:1006130050FA7591FD12064E6013900102E4F07AD0
:100623004A7B021206F6E070047901800279009099
:100633000103E0700675E1EF75E1ECE9A2E0400625
:10064300900101E004F07F030202B4900108120A52
:1006530099A3A3A3A3A3E02274F712024EE9FCEA31
:10066300FDEBFE75080175090078081201E4E50841
:1006730042F2C28DEC4D4EF5B6A28D50FCE5BBF9AE
:10068300E5BAFA750801750900EE78081201E4E588
:1006930008F452F2E9FB7F020202B4E5C65480F883
:1006A30053BEFBE59DA2E550FAE59DA2E240F400AE
:1006B3007401697007744948F5C68005E9700288BA
:1006C300C6E5C6F8E59E6870FB43BE0422E9F8E57B
:1006D3009EA2E64003790122E8700553C67F800895
:1006E300740168700343C680E5C6F9E59E6970FB33
:1006F300790022EBC313FBEA13FAEAF8EBF9E824D7
:10070300FFFAE934FFFBE849601300000000000032
:10071300000000000000000000000080DD2274F8EB
:1007230012024EEAFEEBFFEEF8EFF9E824FFFEE9D2
:1007330034FFFFE84960097AE87B031206F680E795
:100743007F010202B4C082C083906189E04460F0FB
:100753009061FA7409F09061B27415F09061AEE49F
:10076300F01207BA7900805D74F712024E75E1EE5C
:100773007591FD780080108808EA2508F582EB342E
:1007830000F583E0F5D908E8C39940EB020699C068
:1007930082C083800DE5D98A828B83F0A3AA82ABC2
:1007A3008319E970F0801EC082C0839061A3E0C208
:1007B300E6F0539AFE800EC082C0839061A3E0D21C
:1007C300E6F0439A01D083D08222C0E074F2120291
:1007D300F4A2AFE433FEC2AFE5E9A2E65014900100
:1007E300FD120AFB600612052B12024C759B005387
:1007F300E9BFEEA2E092AF7F01020353C292C2802F
:10080300C2F989F9A2F950FC00000000D29222C279
:1008130092D280C2F989F9A2F950FC00000000D2FB
:100823009222C082C083C292D280ECF8EDF9E82410
:10083300FF1CE934FFFDE8496014C2F98A828B8307
:10084300E0F5F9A3AA82AB83A2F940DE80FA0000A7
:100853000000D2920207C874F812024EE9FE8A829F
:100863008B8374FF2EC454F04480F91207FF7C106D
:100873007D00AA82AB83120825020557EEC0E05320
:10088300F4FBD29243FE0453F3FED28043FD01797D
:10089300151207FF79501207FF790F120812790E0C
:1008A3001207FF79251207FF791C1207FF7A157BC0
:1008B300001207211208D379C01207FF7E40790086
:1008C3001208121EEE70F779291207FFD0E0FE22FC
:1008D300EEC0E079801207FF7E3079201208121EE5
:1008E300EE70F7D0E0FE2202053974F712024EEAE9
:1008F3004B603078008A828B83E06013C0E012097A
:1009030029D0E0F08A828B83A3AA82AB838006126C
:1009130009297420F008E8C3941040D97AFF7B01B9
:1009230012085A020699880874FF2508F582740193
:100933003400F5832274F512024EEAFEEBFFE9332D
:10094300333354F844C0F91207FF750A00850A08C7
:10095300EE2508F582EF3400F583E0F9120812055D
:100963000AE50AC3940840E57F040202B40205398C
:100973007901120B9D7902120B9D7903120B9D795C
:1009830004120B9D7A327B0012072180E379001257
:1009930006D0E96010790112069E79001206D0E9AB
:1009A3006003120973790012069E43FE01C290434D
:1009B300FE02C29143FE10C29443FD02C281120A99
:1009C3002F120FA443F10243F48043F44043F42075
:1009D300E59E75FB8075F800A2E0E433240F442004
:1009E300F5FC75FA5312087FD2AF22C082C0837917
:1009F30000120A2FA28150227800A28150047800AD
:100A03007900E8240108E93400F9C3E894F4E9948F
:100A130001A2D265D03340E2790153F3FD90023A4B
:100A2300E0E0A2E0928143FD020207C853F3FD53C5
:100A3300FDFD438F0222C0E074F11202F4C2C5E54A
:100A43008960477E00750801750900EE7808120178
:100A5300E4AF08E5895F602BEEC333F8E433F97440
:100A63000F28F5827402120AF86014EEC333F8E417
:100A730033F9740F28F5827402120A9212024CEFB2
:100A8300F452890EEEC3940840BB7F02020353392C
:100A9300F583120A9922E0F8A3E0F583888222C045
:100AA300E074F11202F4C2EBE58A60477E00750838
:100AB30001750900EE78081201E4AF08E58A5F606A
:100AC3002BEEC333F8E433F9741F28F58274021252
:100AD3000AF86014EEC333F8E433F9741F28F5827F
:100AE3007402120A9212024CEFF4528A0EEEC3946D
:100AF3000840BB809539F583E0F8A3E0F9E8492283
:100B0300C0E074F11202F4C2E8E58B60477E007521
:100B13000801750900EE78081201E4AF08E58B5F60
:100B2300602BEEC333F8E433F9742F28F582740293
:100B3300120AF86014EEC333F8E433F9742F28F57E
:100B4300827402120A9212024CEFF4528B0EEEC31D
:100B5300940540BB020A8DEEC0E0E9FE7B067A10E5
:100B6300798012065BEB547FF8C394285004790014
:100B73008020E8C3943C500479018016E8C3944A6A
:100B830050047902800CE8C3945450047903800222
:100B93007904EE6970C4D0E0FE22C082C083E914F8
:100BA300600B14600D14600F1460118019639001C1
:100BB3008014639002800F639010800A6380029018
:100BC300023AE06401F00207C874F512024EEAFE2D
:100BD300EBFF750A00750B011209EEE9640170035E
:100BE300020C7D120B5AE9640370167401250AC0C6
:100BF300E08E828F83A3A3E0F5F0D0E084E5F0805C
:100C030014120B5AE964027014E50A700C8E828F79
:100C130083A3A3E014F50A800A150A8006E50BA254
:100C2300E050B5120C87E0FAA3E0FB79021208ED5D
:100C33007B3C7A0079031208EA7B3E7A0F79031230
:100C430008EA750B00750800750900120B5AE96470
:100C5300046006750800750900E5082401F508E538
:100C6300093400F509C3E50894F4E5099401A2D217
:100C730065D0334003020BDB80D1120C87A3A3E0C2
:100C8300F902096BE50A75F003A4F8A9F08E828FC7
:100C930083E028FAA3E0398A82F5832274F51202ED
:100CA3004E74D41201F78A088B098510828511834B
:100CB300AC82AD83758302758287740E1201C3748F
:100CC3000E120242AC82AD83758302758295741E47
:100CD3001201C390624AE014602A14605724F16041
:100CE3001D2490602B24FD603914604224FC60387D
:100CF30024F8601624EC602424F0601A803C7C7D88
:100D03007D02803A7C787D0280347C737D02802E64
:100D13007C6E7D0280287C697D0280227C647D025A
:100D2300801C7C5F7D0280167C5A7D0280107C557E
:100D33007D02800A7C507D0280047C827D02750ADC
:100D430004750B00780A1203AB7407120242AA82DD
:100D5300AB83121049740212020D906249E0C4542D
:100D63000F2430C0E0740B120242D0E0F0AA08ABAB
:100D73000912102D8A0A8B0BAE0AAF0B740E1202E6
:100D830042AA82AB8312102D8A0A8B0BEE250AF836
:100D9300EF350BF9C3E89411E99400500BAC08AD9F
:100DA30009AA82AB83120FF77AEB7B02790012094F
:100DB300387AF37B0279011209387AFB7B027902D4
:100DC3001209387A037B0379031209388510828567
:100DD3001183AA82AB8379011208ED740E120242C9
:100DE300AA82AB8379021208ED7A997B0279031206
:100DF30008ED7B007A0079011209707B017A007992
:100E0300021209707B027A0179011209707B037A5D
:100E1300017902120970742C12020D02096B74F726
:100E230012024E7A4A7B0279011208ED7AA37B0201
:100E330079021208ED90023D74EFF0A374BEF07ACC
:100E43003D7B021204A5E96401700312097375E185
:100E5300EC75E1E380377508017509007808120322
:100E6300AB9002E5E0FCA3E0FD7A3C7B02120FB1FC
:100E7300740212020D9002E9E4F0D2AF9002E4E0B2
:100E8300600B90023CE070057901120B9D9002E922
:100E9300E060FAC2AF9002E4E070BB75080080B96D
:100EA30074F712024E7A437B0279011208ED7AA994
:100EB3007B0279021208ED7AB77B0279031208EDFF
:100EC30090023BE4F090023D7420F0A37425F07A85
:100ED3003D7B021204A5E9640170031209739001BA
:100EE30003E4F075E1EF75E1EC8034EB547FC394D8
:100EF30054403F7A037B001206F61EEE70239002E5
:100F030039E0701B7401F07A647B001207217901C8
:100F13007C3B7D027AEF7BBE12055CC2AFD2AF7E13
:100F230003E5A0FF7B067A10798012065BEFA2E04F
:100F330040B9900239E4F080E690023F7407F0A3D1
:100F43007420F0A37419F0A37401F0120990120F26
:100F5300A4120748E964017003120973D2907AC49A
:100F63007B02120C9F1209EEE9640170F87A5E7B32
:100F7300011207211208D37AD17B0279011208EDFD
:100F83007A117B03120BCCE9FE1208D374016E7045
:100F930005120EA3800874026E7003120E2102095B
:100FA3007353F5FE53FFFE43F70143F3402274F7F7
:100FB30012024EEAF8EBF97409120242E0FEA3E0D2
:100FC300FF80188C828D83E088828983F0A3A882B6
:100FD300A9838C828D83A3AC82AD838E088F09E5B0
:100FE3000824FF1EE50934FFFFE508450970D47F97
:100FF300020202B474F812024EEAF8EBF98005A378
:10100300AA82AB838A828B83E070F48C828D83E027
:10101300A3AC82AD838A828B83F0A3AA82AB837055
:10102300EAE8FAE9FB7F010202B4C082C0838A8244
:101033008B838001A3E070FCE582C39AFAE5839B6E
:10104300FBD083D0822274F712024EEAF8EBF974D4
:1010530009120242E0FEA3E0FF8E088F09E508248F
:10106300FF1EE50934FFFFE508450960288C828DE2
:1010730083E0A3AC82AD838A828B83F0A3AA82AB85
:101083008370D6EE4F600EE4F0A3EE24FF1EEF3420
:0E109300FFFF4E70F2E8FAE9FB7F020202B4A2
:04000005000000D324
:00000001FF
