:020000040000FA
:030000000200D328
:03003300021115A2
:03004B00020D9E05
:03006B000210552B
:03007B000210AEC2
:10008300020D6600000080FB1200E2B900030200CB
:10009300CDE490010178B579028002F0A3D8FCD9B0
:1000A300FA9002B5AA82AB839000E5783579048093
:1000B30015E493A3AC82AD838A828B83F0A3AA82D7
:1000C300AB838C828D83D8E9D9E7121C9512008605
:1000D30075D0007581BF75100175110102008B7910
:1000E30001222D3364426D003064426D003464425A
:1000F3006D003131202D2032343035204D487A00C7
:100103003132202D2032343130204D487A003133C2
:10011300202D2032343135204D487A003134202DC2
:100123002032343230204D487A003135202D2032B0
:10013300343235204D487A003136202D2032343385
:1001430030204D487A003137202D2032343335208A
:100153004D487A003138202D2032343430204D4838
:100163007A003139202D2032343435204D487A003D
:100173003230202D2032343530204D487A00323150
:10018300202D2032343535204D487A003232202D4F
:100193002032343630204D487A003233202D20323D
:1001A300343635204D487A003234202D203234370E
:1001B30030204D487A003235202D20323437352017
:1001C3004D487A003236202D2032343830204D48C5
:1001D3007A005472616E736D69747465720052654E
:1001E300636569766572003130303020506B74730B
:1001F30000313030303020506B7473003130303088
:10020300303020506B747300313030303030302058
:10021300506B7473003130302F7365636F6E6400FD
:1002230035302F7365636F6E640032302F736563EF
:100233006F6E640031302F7365636F6E6400323408
:10024300323000323433300032343331003235321D
:10025300300032353330003235333100323531300E
:10026300003235313100313131300031313131003B
:100273002D2D2D2D002020204343787878782028B9
:1002830020290020202000000000000000000000C2
:10029300000000000000000000000000000000005B
:1002A300002020205449204C5057005045522054E0
:1002B3006573746572005265636569766572005291
:1002C30065616479005045523A2000202F31303067
:1002D3003000525353493A200064426D0052656323
:1002E3007627643A20004A6F79737469636B2050F0
:1002F3007573680073746172742F73746F70005434
:1003030072616E736D69747465720053656E743ACD
:1003130020005045522054657374004368616E6E2B
:10032300656C3A20004F7065726174696E67204D89
:100333006F64653A20005061636B65742072617469
:10034300653A200042757273742053697A653A20C6
:10035300005458204F757470757420506F77657210
:100363003A2000FF0000000000000000000000B57C
:100373000200BB0201C002024205034903070E0E3D
:100383001C191B1B1B1B191C0E0E0703181E07032E
:10039300181C060000061C1803071E18C5020BD301
:1003A300020CE1020DEF020EFD020F0B0310190305
:1003B300112703123503134303145103155F031667
:1003C3006D03177B031889031997031A6F0510A58B
:1003D3000300B10301A20502BA0300C40301CF0362
:1003E30002DB0303E803000010270000A0860100DE
:1003F30040420F00AB0504E80364F30332FD03142A
:1004030007040ACA0504000000000A0000000100F6
:100413000000E8030000E066701008A3E066700ABD
:1004230008A3E066700408A3E06622C3E09608A36D
:10043300E09608A3E09608A3E096A2D265D0332203
:10044300C3E7960809E7960809E7960809E796229D
:10045300C3E09608A3E09608A3E09608A3E09622DB
:10046300080808EAC0E0EBC0E086F0E7A4FA180940
:1004730086F0E7A42AFA180986F0E7A42AFA1809ED
:1004830086F0E7A42AFA1986F0E7A4FBE5F02AFA36
:10049300190886F0E7A42BFBE5F03AFA190886F071
:1004A300E7A42BFBE5F03AFA18180986F0E7A4C590
:1004B300F02BFBE43AFA1908E7C5F0C6A426F6E5E3
:1004C300F03BFBE43AFA1886F0E7A4F6E5F00826D9
:1004D300F6E43B08F6E43A08F6D0E0FBD0E0FA2273
:1004E300E4CFC0E0E4CEC0E0E4CDC0E0E4CCC0E0C3
:1004F30075F020C3E633F608E633F608E633F6086C
:10050300E633F6181818EC33FCED33FDEE33FEEF4B
:1005130033FFC3EC9709ED9709EE9709EF97191984
:1005230019400FFFEC97FC09ED97FD09EE97FE19B3
:100533001906D5F0BEECF709EDF709EEF709EFF769
:10054300191919D0E0FCD0E0FDD0E0FED0E0FF2285
:100553001205BB1818181204E31205AA1919192257
:100563001205AA191919080808E618181820E7E04F
:100573001204E31205BB18181822090909E719190F
:100583001920E7DC080808E618181820E703020416
:10059300E31205BB1818181204E31205BB18181848
:1005A3001205AA19191922E4C397F709E497F70961
:1005B300E497F709E497F722E4C396F608E496F67E
:1005C30008E496F608E496F622E026F608A3E03659
:1005D300F608A3E036F608A3E036F622E026F00894
:1005E300A3E036F008A3E036F008A3E036F022C318
:1005F300E0C696F608A3E0C696F608A3E0C696F60C
:1006030008A3E0C696F622E0F608A3E0F608A3E006
:10061300F608A3E0F622E6F008A3E6F008A3E6F066
:1006230008A3E6F022CAC0E0E6F0A308DAFAD0E0B5
:10063300FA22CAC0E0E0A3C582CCC582C583CDC57A
:1006430083F0A3C582CCC582C583CDC583DAE6D04A
:10065300E0CA22C3E498F8E499F91206978026C306
:10066300E49AFAE49BFBE920E7E9120697E498F899
:10067300E499F922C3E498F8E499F9120697E49807
:10068300F8E499F9C3E49AFAE49BFB22EB20E7CF61
:10069300E920E7E0B90010BB0008E88AF084F8AA73
:1006A300F022E4FBC8FA22EB70227B10C833C8C9DE
:1006B30033C9335007C39AC3DBF280069A50012A29
:1006C300DBEAC833F4C8C933F4C9FA2275F008E485
:1006D300C833C8C933C933C99AC99B5004C92AC985
:1006E3003BD5F0ECFBC833F4C8E4C9FA227004220A
:1006F300600D18C6C333C608C633C6D5E0F4182246
:10070300251010AF08F510400215118008F51040B0
:10071300021511D2AF22C0D0251010AF08F510502A
:100723000205118008F51050020511D2AFD0D02276
:100733002510F58210AF08F510400215118008F559
:100743001040021511D2AF851183222510F582E4E2
:100753003511F58322E4732510C582C0E0E5113419
:10076300FFC583C0E0E510C3958224F9F8E4C5A86A
:10077300858311858210C5A8E8CEF0A3E520F0A3F8
:100783007808E608F0A3DEFAEFF0A3E58124FBF88E
:10079300E608F0A3E608F0A30808E608F0A3E608D5
:1007A300F0A315811581D0E0FED0E0F81581158105
:1007B300E8C0E0EEC0E022851183851082E0A3FE4D
:1007C300E0A3F5207808E0A3F608DFFAE0A3FFE052
:1007D300A3C0E0E0A3C0E0E0A3C0E0E0A3C0E0E486
:1007E300C5A8858210858311C5A8D083D08222C075
:1007F300D02510C582C0E0E51134FFC583C0E0E514
:1008030010C3958224F310AF08858311858210806D
:1008130008858311858210D2AFC8F0A3E9F0A3EA5B
:10082300F0A3EBF0A37908E709F0A3D8FAECF0A35F
:10083300EDF0A3EEF0A3EFF0A3D0E0F0A3D0E0F04F
:10084300A3D0E0F0A3E520F0A3E5F0F0A322851107
:1008530083851082E0C0E0A3E0F9A3E0FAA3E0FB04
:10086300A37808E0F608A3DFFAE0FCA3E0FDA3E029
:10087300FEA3E0FFA3E0C0E0A3E0C0E0A3E0F5D067
:10088300A3E0F520A3E0A3F5F0E4C5A885831185D3
:100893008210C5A8D082D083D0E0F8D0E0327404AF
:1008A300800474028000C0E0F404120733D0E01225
:1008B30006282274048000CCC0E0EDC0E0E510C33C
:1008C3009CCCAD1150011D10AF068C108D1180060C
:1008D3008C108D11D2AF120635D0E0FDD0E0FC2292
:1008E300D083D082C5F0E493A3C5F0C395F0F5F0AF
:1008F300E493A3C395F04005E5F0048001E475F0AB
:1009030002A42582F582E5F03583F583E493A3C041
:10091300E0E493C0E022D083D082CCC0E0E493A390
:1009230060061209431470FAE493A3600612096285
:100933001470FAD0E0FCE493A3C0E0E493C0E02297
:10094300C0E0E493A3D39C5010E493A3C39C400A58
:10095300D0E0D0E0D0E0020936A3A3A3D0E022C0C8
:10096300E0E493A36C7009D0E0D0E0D0E002093654
:10097300A3A3D0E022C082C083120D44D2AF790179
:100983007ABD7B01120D2B9001BDE0C2E7F0640537
:1009930070377905120A525004D2F08002C2F0A2D5
:1009A300F0E492E090053EF09001C2E0A2E740033C
:1009B300020A4A9001C0E0FA900141E06A60030232
:1009C3000A4A7401900142807DE024F590053BF0D2
:1009D3009001BDE0F9120A525004D2F08002C2F035
:1009E300A2F0E492E090053EF09001C5120BFD9059
:1009F3000537E8F0A3E9F090053C74C7F0A3740150
:100A0300F090053BE0F83395E0F9E824C7F8E934C2
:100A130001F988828983E090053F1216C2A3E0A200
:100A2300E7501C900536E0FA9001C0E06A60109030
:100A330001BEE054DF644170067401900540F090FC
:100A430001C0E0900536F0C2AF120D550210467A90
:100A5300BE7B01120D2B9001BEE0A2E52274F512BC
:100A6300075A8A828B83120D07E9640170047901A6
:100A73008073C2AFA882A983900148E8F0A3E9F08C
:100A830090053CE4F0A3F07401900143F09005D984
:100A9300780812060A900144780812061975F005C1
:100AA300121105A3A3A3A3E0A424D490618F121170
:100AB30004120BFDE8906174F0E9906175120BF973
:100AC300E8906172F0E9906173F0A2AFE492E0FA0A
:100AD300C2AF90023D7478F0A37409F0EAA2E092E9
:100AE300AFD2AF790002147474F612075AEAFEEB20
:100AF300FF8C088D09890A900143E0700675E1ECCB
:100B030075E1E3E9C394674003750A67906193E075
:100B1300542270F8120D44740B250A90014AF01206
:100B23000BF16004786180027841E890014BF07426
:100B33008890014CF0900141E090014D120BF99027
:100B4300014EE8F0A3E9F0900150EEF0A3EF12118B
:100B530004120BFD900152E8F0A3E9F07A00802023
:100B63008A82A882E50828F582E5093400F583E046
:100B7300C0E0E82454F582E43401F583D0E0F00AC0
:100B8300EAC3950A40DA740A250AFB75E1EE75910A
:100B9300FD7A0080118A08E508244AF582E43401CD
:100BA300F583E0F5D90AEAC39B40EA120D5575E1D6
:100BB300E9E591A2E150FA7591FD120BF1600FE4A2
:100BC300900142F07A4A7B02120CA9E0600479009A
:100BD30080027901900143E0700675E1EF75E1EC65
:100BE300E97006900141E004F07F030207BA120C9A
:100BF30003A3A3A3E022F0120C03E0F8A3E0F9227D
:100C030090014812110CA3A322C008C00975080162
:100C1300750900EB78081206F0E50845F2F5F2C213
:100C23008DEA494BF5B6A28D50FCE5BBFDE5BAFC58
:100C3300750801750900EB78081206F0E508F4550C
:100C4300F2F5F2ECFAEDFBD009D00822748055C618
:100C5300FA53BEFBE59DA2E550FAE59DA2E240F4FE
:100C630000740169700774494AF5C68005E970028A
:100C73008AC6E5C6FAE59EFBEA6B70F943BE042219
:100C8300E59EA2E64003790122E9700553C67F8001
:100C930008740169700343C680E5C6FAE59EFBEA62
:100CA3006B70F9790022EBC313FBEA13FAEAF8EB52
:100CB300F974FF28FA74FF39FB7400687003740039
:100CC3006960130000000000000000000000000045
:100CD3000000000080D72274F812075AEAFEEBFFE7
:100CE300EEF8EFF974FF28FE74FF39FF74006870A3
:100CF3000374006960097AE87B03120CA980E17F21
:100D0300010207BAC082C083906189E04460F07435
:100D1300099061FAF074159061B2F0E49061AEF05D
:100D2300120D557900021046C082C083800DE5D9AB
:100D33008A828B83F0A3AA82AB8319E970F0021035
:100D430046C082C0839061A3E0C2E6F0539AFE02DC
:100D53001046C082C0839061A3E0D2E6F0439A01BB
:100D6300021046C0E074F21207F2A2AFE492E0FE72
:100D7300C2AFE5E9A2E6501990023DE07002A3E09C
:100D8300600990023D121108120758759B0053E940
:100D9300BFEEA2E092AF7F01020851C0E074F212ED
:100DA30007F290023FE07002A3E0600990023F1255
:100DB300110812075880DFC292C280C2F989F9A2D2
:100DC300F950FC00000000D29222C292D280C2F9F4
:100DD30089F9A2F950FC80EB74F812075AC292D237
:100DE300808012C2F98A828B83E0F5F9A3AA82ABD1
:100DF30083A2F950FCECF8EDF974FF281C74FF3959
:100E0300FDE87001E970DC00000000D2927F01026E
:100E130007BAC082C0838A828B8374FF29C454F0CB
:100E23004480F9120DBA7C107D00AA82AB83120DA7
:100E3300DB021046EEC0E053F4FBD29243FE0453B0
:100E4300F3FED28043FD017915120DBA7950120DCC
:100E5300BA790F120DCD790E120DBA7925120DBA8A
:100E6300791C120DBA7A157B00120CDA120E8B79EB
:100E7300C0120DBA7E407900120DCD1EEE70F779C7
:100E830029120DBAD0E0FE22EEC0E07980120DBA2D
:100E93007E307920120DCD1EEE70F7D0E0FE22EEEB
:100EA300C0E0120F76D0E0FE2274F712075AEA7000
:100EB30001EB60307C008A828B83E06013C0E01218
:100EC3000EECD0E0F08A828B83A3AA82AB838006E8
:100ED300120EEC7420F00CECC3941040D97A417BD1
:100EE30002120E157F020207BA8C08E5082441F5A9
:100EF30082E43402F5832274F812075AECFEEDFF04
:100F0300740812074E120BFD88828983EA7001EB85
:100F130060057901120EACEE7001EF6009EEFAEF95
:100F2300FB7902120EACE5827002E5836009AA82A6
:100F3300AB837903120EAC020E1074F512075AEA52
:100F4300FEEBFFE933333354F844C0F9120DBA759D
:100F5300080085080AEE250AF582EF3400F583E0E0
:100F6300F9120DCD0508E508C3940840E502147491
:100F7300020EA2EBFE74FF29C454F02A4480F91236
:100F83000DBAEEF9120DCD2279011212697902120E
:100F93001269790312126979041212697A327B0099
:100FA300120CDA80E37900120C83E96010790112E4
:100FB3000C4F7900120C83E96003120F8B79001236
:100FC3000C4F43FE01C29043FE02C29143FE10C286
:100FD3009443FD02C28112104B121C7C43F1024365
:100FE300F48043F44043F420E59EA2E0E492E0243D
:100FF3000FFA75FB8075F80074204AF5FC75FA53F7
:10100300120E37D2AF22C082C083790012104BA2D6
:101013008150227800A281500478007900E82401ED
:1010230008E93400F9C3E894F4E99401A2D265D045
:101033003340E2790153F3FD90027CE0A2E0928118
:1010430043FD02D083D0822253F3FD53FDFD438F32
:101053000222C0E074F11207F2C2C5E589603C7E4A
:1010630000750801750900EE78081206F0AF08E56F
:10107300895F6020EEC333F8E433F91210A3E07004
:1010830002A3E060091210A3121108120758EFF42B
:101093005589F5890EEEC3940840C67F02020851B4
:1010A300E82451F582E93402F58322C0E074F11299
:1010B30007F2C2EBE58A603C7E0075080175090002
:1010C300EE78081206F0AF08E58A5F6020EEC333BE
:1010D300F8E433F91210F9E07002A3E0600912108A
:1010E300F9121108120758EFF4558AF58A0EEEC368
:1010F300940840C680A5E82461F582E93402F583AB
:1011030022F090014812110C22E0F8A3E0F5838845
:101113008222C0E074F11207F2C2E8E58B603C7EE4
:1011230000750801750900EE78081206F0AF08E5AE
:101133008B5F6020EEC333F8E433F9121161E07082
:1011430002A3E06009121161121108120758EFF4AB
:10115300558BF58B0EEEC3940540C602109EE82412
:1011630071F582E93402F5832274F712075A7E007F
:10117300A2A0E492E0FF7B067A107980120C0C8B1C
:1011830009A909EF6008747F59C3945450097E007C
:10119300E490027BF080237A037B00120CA90EEE0D
:1011A300C3940340CB90027BE0700D7401F0FE7A90
:1011B300647B00120CDA80027E00EEF9020EE77403
:1011C300F712075AE9FE7B067A107980120C0C8B12
:1011D30009A909747F59F9E4C9F8C39428E4940070
:1011E3004028C3E8943CE49400500309801CC3E8FE
:1011F300944AE4940050030980F1C3E89454E494BE
:1012030000500509090980027904EE6970B6020EDF
:10121300E7C082C083E91208E301033C1228122CC1
:101223001230123412D2908010D291800CD294805A
:1012330008D281740190027CF0021046C082C08300
:10124300E91208E301036612531257125B125F128D
:10125300C290800FC291800BC2948007C281E49038
:10126300027CF0021046C082C083E91208E3010346
:101273009C127D12841289129012639001E5908072
:101283001863900280F7639010E590800C638002EE
:10129300E58090027CE06401F002104674F11207CD
:1012A3005A74FB120703740112074EEAF0A3EBF022
:1012B300A3ECF0A3EDF07A7D7B02740112074EC01C
:1012C30082C0839005D9780812060AD083D0827829
:1012D3000812042E50227401851082851183F012A6
:1012E300074E780812060A78081205BB7401120724
:1012F3004E78081206198008E4851082851183F060
:10130300740112074E780C12060A9005DD78081254
:10131300060A780C790812057DE50824308A828B49
:1013230083F0A3AA82AB83740112074E780C1206D2
:101333000A9005DD780812060A780C790812057DF3
:10134300740112074E780C120619740112074EC06D
:1013530082C0839005D9780812060AD083D0827898
:1013630008120419709A851082851183E0600B744A
:101373002D8A828B83F0A30AAB83E41213B5787DA5
:10138300790280198A828B83E0FC88828983E01248
:1013930013B5EC88828983F0A3A882A983C3E89A52
:1013A300E99B40E07A7D7B0274051207197F0802EE
:1013B30007BA8A828B83F0EA24FF1AEB34FFFB22FD
:1013C30074F512075AEAFEEBFF750A00750B0180EC
:1013D30056E50B6052121479E0FAA3E0FB7902128E
:1013E3000EAC7B3C7A007903120EA27B3E7A0F7916
:1013F30003120EA2750B007508007509001211C2C5
:10140300E964046006750800750900E5082401F520
:1014130008E5093400F509C3E50894F4E5099401E6
:10142300A2D265D03340D6121A56603E1211C2E9D9
:10143300640370187401250AC0E08E828F83A3A30E
:10144300E0F5F0D0E084E5F0F50A80891211C2E9F5
:10145300640260030213D4E50A700A8E828F83A3A9
:10146300A3E01480E3150A0213D8121479A3A3E0AE
:10147300F97F040207BAE50A75F003A4F8A9F08E10
:10148300828F83E028FAA3E0398A82F5832274F5F8
:1014930012075A74D41207038A088B0985108285B0
:1014A3001183AC82AD83758304758248740E120672
:1014B30035740E12074EAC82AD8375830475825664
:1014C300741E12063590624AE0120919000A0121BE
:1014D3001502F11411271581151584031585F714C9
:1014E30089FD14911B15A50915B50F152D157C1133
:1014F3007D04803A7C167D0480347C1B7D04802E21
:101503007C207D0480287C257D0480227C2A7D0428
:10151300801C7C2F7D0480167C347D0480107C39F4
:101523007D04800A7C3E7D0480047C437D04750A2F
:1015330004750B00780A1208A5740712074EAA82D5
:10154300AB83121DAA7402120719906249E0C454B6
:101553000F2430C0E0740B12074ED0E0F0AA08ABA2
:1015630009121D8E8A0A8B0BAE0AAF0B740E12077B
:101573004EAA82AB83121D8EEA2EF8EB3FF9C3E825
:101583009411E99400500BAC08AD09AA82AB831205
:101593001D587A4F7B057900120F3D7A577B0579E9
:1015A30001120F3D7A5F7B057902120F3D7A677B4B
:1015B300057903120F3D851082851183AA82AB83BF
:1015C3007901120EAC740E12074EAA82AB83790214
:1015D300120EAC7A747B047903120EAC7B007A0092
:1015E3007901120F737B017A007902120F737B0268
:1015F3007A017901120F737B037A017902120F7357
:10160300742C12071902147474F212075A890E8A81
:101613000C8B0DECFEEDFF740E12074E78081206CC
:101623000AAA08AB09AC0AAD0B12129F8A088B09F0
:10163300A808A9097A00E50C7002E50D6020850C65
:1016430082850D83E06017C0E01216B4D0E0F08508
:101653000C82850D83A385820C85830D803E888251
:101663008983E06011C0E01216B4D0E01216C2A361
:10167300A882A9838026EE7001EF601A8E828F8381
:10168300E06013C0E01216B4D0E0F08E828F83A323
:10169300AE82AF8380061216B47420F00AEAC394B4
:1016A3001040937A897B02A90E120EAC7F070207C2
:1016B300BA8A08E5082489F582E43402F58322F026
:1016C3008882898322C082C08374019002B3F002AE
:1016D3001046C082C0839002B4E06401F0E060076A
:1016E300D2B943E4028002C2B902104674F1120770
:1016F3005A74AC120703900101C082741412074E8E
:10170300AC82AD83758301D0827440120635851097
:1017130082851183F09005D9780812060A740412A1
:10172300074E78081206199005D9780812060A742C
:101733001012074E78081206199005D97808120678
:101743000A740C12074E7808120619740212074E17
:10175300E4F0A3F0740112074EE4F090029974EFE1
:10176300F0A374BE121C897003120F8B74019001D5
:1017730043F075E1EC75E1E3120E8B750892750980
:101783000478081208A57C897D047A7E7B04120EF6
:10179300FA74021207190218C3740812074EC082A2
:1017A300C0839005E1780812060AD083D0827808B6
:1017B3001205CC740412074E78081206199005D945
:1017C300780812060A741012074E78081206199048
:1017D30005D9780812060A740C12074E7808120607
:1017E300199005E1780812060A741012074E78085A
:1017F3001205DF121A56702C740112074E7401F091
:101803009005E1780812060A741012074E78081240
:1018130006199005D9780812060A740C12074E7837
:1018230008120619740C12074E780812060A90055E
:10183300E5780C12060A7808790C120463740C120A
:10184300074EC082C083741012074E780C12060A2A
:10185300D083D082780C1205CC7808790C1204E37B
:1018630078081208A17C9E7D047A987B0479011282
:101873001C76120719740212074E120BFD7A207B95
:101883000012068F8808E9F5093395E0F50AF50B90
:1018930078081208A17CAC7D047AA57B0479021236
:1018A3001C76120719741012074E1208B67C007DBD
:1018B300007AB07B04121C74120719790312123FC9
:1018C300900540E060FAC2AF90053BE0FAC394672D
:1018D30050048A08800375086775090078081208A0
:1018E300A590053CE0FCA3E0FD7AA97B02121D1044
:1018F300740212071990053FE0F83395E0F990055B
:101903004EE0FAE8C39AFEE99400FFE4900540F044
:10191300D2AF90053BE0FAC394675003EA60A17924
:10192300031212149002A9780812060A7408120707
:101933004E7808120619740112074EE0601B7408F2
:1019430012074E780812060A740412074E7808121A
:101953000619740112074EE4F0851082851183E0A5
:10196300C333F8E433F9741412074EE58228F8E51B
:101973008339F988828983E0FAA3E0FB74021207B2
:101983004EC3E09AF0A3E09B1216C2EEF0A3EF124F
:1019930016C2120BFD740212074EE028F0A3E039C1
:1019A300F0851082851183E004F064207002E4F076
:1019B300740412074EC082C083740812074E78085D
:1019C30012060AD083D08278081204197015900584
:1019D300E1780812060A740412074E78081205DF2C
:1019E3000217E4740412074EC082C08374081207FE
:1019F3004E780812060AD083D08278081204534026
:101A03000302179C740C12074EC082C08374081221
:101A1300074E780812060AD083D08278081205CCC4
:101A2300740412074E78081205F2740C12074E78EC
:101A330008120619740812074EC082C0839005E18C
:101A4300780812060AD083D08278081205CC740471
:101A53000217DC121009E964012274F112075A74A7
:101A6300FC1207039005D9780812060A90029974AC
:101A730020F0A37425121C897003120F8B7A247B28
:101A8300057901120EAC7A4B7B051213C3E91208D8
:101A9300E30002AD1A9E1AA21AA61A7AB580067A34
:101AA300D580027AF5EA906190F07A177B05790187
:101AB300120EAC7AC77B051213C3E9F50C750D0042
:101AC3007402780C1206F0E50C24B7F582E50D34A8
:101AD30005F583780C12060A851082851183780C2C
:101AE300120619E4900143F075E1EF75E1EC7A0910
:101AF3007B057901120EAC7AD67B051213C3E97804
:101B0300007980FA7B00120697880C890D43E40C58
:101B1300E5E4E9942040097EFF7FFF120F8B800BE1
:101B23007403780C1206F0AE0CAF0DEFF5DBEEF597
:101B3300DA75E54453AFFEC2B9A2AFE492E0F8C24E
:101B4300AF90023F74C8F0A37416F0E8A2E092AF1E
:101B5300121C7C9005D9780C12060A90029F780C0F
:101B63001206197A00EA24A3F582E43402F583EA23
:101B7300F00AEAC3940640ED120E8B750CC7750D7F
:101B830004780C1208A57CB97D047A7E7B0480332B
:101B93009005D9780812060A9005D9780C12060A1E
:101BA30090029F780C120619120E8B790312123FC2
:101BB300750CC7750D04780C1208A57CB97D047AE1
:101BC300E57B04120EFA740212071912116CE96014
:101BD300FA1216D5120E8B750C00750D00780C12C7
:101BE30008A57CD27D047A7E7B04120EFA7402125D
:101BF300071980047A00EAF09002B4E060921211AF
:101C03006CE960031216D5851082851183780C1256
:101C1300060A780C7908120443504C9002B3E0642E
:101C23000170D5790A7C9F7D027AEF7BBE120AEBA5
:101C33009005E1780C12060A90029F780C1205DFDA
:101C43009005E178081205CC78081208A17C007D84
:101C5300007ADE7B04121C74120719E49002B3F0BD
:101C6300790312126980919002B4E070877A01803F
:101C730085790312160B74042253F5FE53FFFE43BA
:101C8300F70143F34022F07A997B02120A60E96478
:101C93000122E49002B3F09002B4F090029B740727
:101CA300F0A37420F0E490029EF0120FA8120D0727
:101CB300E964017003120F8B79011212147A7E7B8F
:101CC30004121491121A5670FB7A5E7B01120CDA1D
:101CD300120E8B7AEE7B047901120EAC7A9F7B0590
:101CE3001213C3E990029DF07AF87B047901120E76
:101CF300AC7AA87B051213C3E9FA7005121A5D804A
:101D03000874016A70031216EF120F8B2274F71214
:101D1300075A740912074EE0FEA3E0FFEAF8EBF955
:101D230080188C828D83E088828983F0A3A882A99E
:101D3300838C828D83A3AC82AD838E088F0974FF5D
:101D430025081E74FF3509FFE5087002E50970D206
:101D53007F020207BA74F812075AEAF8EBF9800512
:101D6300A3AA82AB838A828B83E070F48C828D83F7
:101D7300E0A3AC82AD838A828B83F0A3AA82AB8378
:101D830070EAE8FAE9FB7F010207BAC082C0838ADE
:101D9300828B838001A3E070FCE582C39AFAE5831A
:101DA3009BFBD083D0822274F712075A740912075F
:101DB3004EE0FEA3E0FFEAF8EBF98E088F0974FF0B
:101DC30025081E74FF3509FFE5087002E509603533
:101DD3008C828D83E0A3AC82AD838A828B83F0A354
:101DE300AA82AB8370D4EEFCEFFD74FF2C1E74FF4C
:101DF3003DFFEC7001ED600DE48A828B83F0A3AAB2
:0E1E030082AB8380E1E8FAE9FB7F020207BAB6
:04000005000000D324
:00000001FF
